:020000040800F2
:10000000D8040020AD1D0008EF090008CF16000835
:1000100000000000000000000000000000000000E0
:1000200000000000000000000000000007170008AA
:1000300000000000000000005B1D0008351C0008E7
:10004000671D000800000000DD1D0008DF1D00081E
:10005000E11D0008E31D0008E51D0008E71D00087C
:1000600000000000E91D0008EB1D0008ED1D000860
:10007000EF1D0008F11D0008F31D0008000000003E
:10008000F51D0008411C000800000000F71D0008D5
:10009000F91D0008FB1D0008FD1D0008FF1D0008DC
:1000A000011E0008031E0008051E0008511C000860
:1000B000071E000810B50400002C01D1012037E014
:1000C000A0690028FFD16920205C002805D100200C
:1000D00068216054200000F023FC24206921605432
:1000E000206800680121884321680860200000F032
:1000F0009DF9012801D101201AE0606A002802D090
:10010000200000F06AFA206840680A49014020682F
:1001100041602068806808218843216888602068E1
:1001200000680121014320680160200000F0CCFA42
:1001300010BD0000FFF7FFFFFCB583B005000C0009
:10014000002601966920285C202868D1002C03D065
:1001500068468089002801D1012061E080277F0165
:10016000A868B84207D12869002804D12000C00738
:1001700001D5012054E06820285C012801D102202B
:100180004EE0012068216854EE6621206921685400
:1001900000F0FAFB01906846808950216852684659
:1001A0008089522168525220285A002824D0522097
:1001B000285A401E5221685204980090019B002248
:1001C0008021280000F08CFA002801D0032027E0CD
:1001D000A868B8420BD12869002808D10294029877
:1001E0000088C005C00D29680885A41CDBE72078BD
:1001F00029680885641CD6E704980090019B0022BA
:100200004021280000F06CFA002801D0032007E00C
:1002100020206921685468202E54002000E002202C
:1002200005B0F0BD70B503006A20185C202853D1DA
:10023000002903D0100080B2002801D101204CE039
:10024000802040019C68844207D11C69002C04D1A5
:100250000C00E40701D501203FE068241C5D012C5F
:1002600001D1022039E00124250068269D555965F9
:1002700058255A535A255A539D6885420AD1186900
:10028000002803D115485C25585310E0FF205C2559
:1002900058530CE09868002809D11869002803D148
:1002A000FF205C25585302E07F205C255853002036
:1002B000D86622256A269D55682558551868806895
:1002C000044318688460186800689024640004433C
:1002D00018680460002000E0022070BDFF010000EB
:1002E000F8B504002068C569206806682807000F73
:1002F00000900098002807D1A80605D5B00603D5C0
:10030000200000F0A7FA8EE0206887680098002897
:1003100079D00120074204D19021490031400029C1
:1003200071D001002940C9B2002906D0F10504D5D9
:1003300021680862E16E0143E166A9070BD501005F
:100340003940C9B2002906D0022122681162E16E4B
:1003500004220A43E26669070BD501003940C9B29D
:10036000002906D0042122681162E16E02220A43AC
:10037000E26629070BD5B10603D43840C0B2002885
:1003800005D0082021680862E16E0843E066E06E4F
:10039000002837D0A80604D5B00602D5200000F00A
:1003A00059FAE06E000703D420688068400624D51F
:1003B000200000F0CDF920688068400619D520683B
:1003C00080684021884321688860606E00280CD0D6
:1003D0001548616E4863606E00F0DCFA002811D0A9
:1003E000606E616E496B88470CE0200000F0FEFAF9
:1003F00008E0200000F0FAFA04E0200000F0F6FA2D
:100400000020E0660FE0280605D5300603D5200061
:1004100000F0D6F907E0680605D5700603D5200080
:1004200000F008FAFFE7F1BDA9070008FEB50400D7
:1004300000250195102001006A46917029006A4646
:1004400011802E002F00A16822690A4363691343BB
:10045000E169194322681368984A1A400A432368DD
:100460001A6022685368964A1A40E3681343226868
:100470005360A369226A1A43019222689368914AE1
:100480001A40019B1343226893602268AE4B9A4244
:1004900014D1AE4909688907890F002905D00229BE
:1004A00008D005D3032901D006E00CE002250AE0BC
:1004B000042508E0082506E0050004E02168AC4AB0
:1004C000914200D0050080200002E169814246D1BE
:1004D0002800C0B2002806D0022810D0042817D067
:1004E000082821D02AE000F0B1FD022148436168CC
:1004F00049084018616800F0CDFD060020E0606802
:1005000040089C494018616800F0C4FD060017E0EF
:1005100000F05AFD022148436168490840186168AB
:1005200000F0B8FD06000BE0606840088021490239
:100530004018616800F0AEFD060001E001200700F0
:100540008D483040310089B249084907490F0143BD
:1005500068460180684600882168C86039E0290043
:10056000C9B2002906D0022910D0042919D00829BF
:1005700023D02CE000F06AFD6168490840186168EA
:1005800000F088FD80B22168C86022E06068400801
:100590007A494018616800F07DFD80B22168C8602A
:1005A00017E000F011FD616849084018616800F02B
:1005B00071FD80B22168C8600BE0616849080818C5
:1005C000616800F067FD80B22168C86001E0012029
:1005D00007003800C0B2FEBD000000B52421415C18
:1005E000C90707D501684968654A0A40816A11430D
:1005F000026851602421415C890707D50168496878
:10060000604A0A40C16A1143026851602421415C7A
:10061000490707D5016849685B4A0A40016B1143E5
:10062000026851602421415C090707D501684968C7
:10063000564A0A40416B1143026851602421415CD3
:10064000C90607D501688968514A0A40816B114380
:10065000026891602421415C890607D50168896898
:100660004C4A0A40C16B1143026891602421415CED
:10067000490614D501684968474A0A40016C11438C
:1006800002685160016C80225203914207D10168D7
:100690004968424A0A40416C114302685160242172
:1006A000415C090607D5016849683D4A0A40816CEA
:1006B00011430268516000BD00000000F369FFFFB4
:1006C000FFCFFFFFFFF4FFFF01000020C8662022DC
:1006D0006923CA546A23CA54682288540020704788
:1006E000F4B504000D001F00069E2068C069284074
:1006F000A84201D1012000E0002069460978884223
:1007000020D10020C0438642EFD0002E04D000F05C
:100710003BF9C01B8642E8D22068006821490140AD
:100720002068016020688068012188432168886012
:100730002020692160546A2160540020682160549F
:10074000032000E00020F2BD0038014030100240DC
:1007500001680968644A0A4001680A60016889689A
:10076000012291430268916020216A2281547047DE
:10077000004400400024F400F0FF000000127A0062
:10078000FFFFFDFFFFFFFEFFFFFFFBFFFF7FFFFF00
:10079000FFEFFFFFFFDFFFFFFFFFEFFFFFFF9FFF09
:1007A000FFFFF7FF5FFEFFFF38B50400656A00201A
:1007B0005A21685252216852280000F017F931BDC1
:1007C00000B501006920085C212831D15220085A67
:1007D00000280DD108680068802398430B681860D2
:1007E000086800684023034308680360002020E095
:1007F000886880235B0198420DD1086900280AD1DE
:10080000C86C02001088C005C00D0B681885C86C44
:10081000801CC86405E0C86C431CCB6400780B687E
:1008200018855220085A401E5223C852002000E06A
:10083000022000BD10B504002068006840218843F4
:1008400021680860202069216054200000F079FCB4
:10085000002010BDF8B504005C20255A6A20205CF9
:10086000222837D12068868CA068802149018842DF
:100870000BD12069002808D1606D070028003040A6
:100880003880606D801C606506E0606D411C6165AC
:1008900031002A000A4002705A20205A401E5A2174
:1008A000605280B2002813D1206800680E490140D0
:1008B0002068016020688068012188432168886081
:1008C00020206A216054200000F094FC002008E001
:1008D000002006E0206880690821014320688161CA
:1008E0000220F2BD00000000DFFEFFFF80B52248BD
:1008F0002249016096218901416000218160C16027
:1009000001610C2242618161C16101624162FFF7B4
:10091000D1FB002803D04421194800F009FD01BD96
:1009200010B586B0040020681449884221D1802087
:10093000C00114490A6802430A600968084000902F
:100940000098C020C0000190022002900020039077
:10095000032004900120059001A99020C00500F01B
:10096000E9FC002200211B2000F068FE1B2000F0A3
:100970006FFE06B010BD00000C00002000380140E2
:10098000E41B00081810024001480068704700BFCF
:10099000CC00002038B50400002005002121615C56
:1009A000022904D00420A063012005001BE0216877
:1009B00009680E22914322681160216809680122AA
:1009C0009143226811600121226C0B009340E26B7D
:1009D00053602122A15420216054606B002802D072
:1009E0002000616B88472800C0B232BD7047FEE727
:1009F000FEB5040000252078C00763D50C20B3495C
:100A00000A680240042A06D00A68104008280BD160
:100A10000868C00308D5AE480068800352D56068F6
:100A200000284FD1012010E26068012806D1A848B3
:100A30000168802252020A43026024E060680028B4
:100A400009D1A3480168A34A0A4002600168A24A8A
:100A50000A40026017E0606805280BD19C480168D5
:100A60008022D2020A4302600168802252020A43B5
:100A7000026008E096480168964A0A4002600168F0
:100A8000954A0A400260606800280DD0FFF77CFF9D
:100A900005008F480068800314D4FFF775FF401BE2
:100AA0006528F6D30320D0E1FFF76EFF05008848E4
:100AB0000068800306D5FFF767FF401B6528F6D363
:100AC0000320C2E102262068304000284FD00C20CD
:100AD0007E490A680240002A06D00A6810400828A9
:100AE00014D10868C00311D4794801683140002945
:100AF00004D0E168012901D00120A6E10168F822B3
:100B000091432269D2000A43026030E0E068002885
:100B10001AD06F4F3868012101433960FFF734FF65
:100B2000050038683040002806D1FFF72DFF401B34
:100B30000328F6D3032088E13868F8218843216927
:100B4000C9000143396012E0614F386801218843D0
:100B50003860FFF719FF050038683040002806D0DC
:100B6000FFF712FF401B0328F6D303206DE1207826
:100B7000000728D5E069002812D0B44F3868012159
:100B800001433960FFF700FF050038683040002856
:100B900019D1FFF7F9FE401B0328F6D3032054E1D7
:100BA000AA4F3868012188433860FFF7EDFE050041
:100BB00038683040002806D0FFF7E6FE401B0328C7
:100BC000F6D3032041E1042720683840002800D1F3
:100BD0008DE0002069460870802040059C49096826
:100BE000014000290AD19A490A6802430A6009684B
:100BF00008400190019801206946087095480068F6
:100C0000C00514D4934800688021490001439148ED
:100C10000160FFF7B9FE05008E480068C00506D4E4
:100C2000FFF7B2FE401B6528F6D303200DE1A06854
:100C3000012805D18848016801220A43026021E0A9
:100C4000A068002809D1844801680122914301600D
:100C5000016804229143016014E0A068052808D1CE
:100C60007D48016839430160016801220A4302603E
:100C700008E079480168012291430160016804227B
:100C800091430160A06800280FD0FFF77DFE0500AA
:100C9000714800683040002820D1FFF775FE401BE6
:100CA0006E498842F4D30320CFE0FFF76DFE0500C4
:100CB000694800683040002810D0FFF765FE401BEF
:100CC00066498842F4D30320BFE000BF041002400D
:100CD00000100240FFFFFEFFFFFFFBFF68460078A9
:100CE000012804D15A4801685D4A0A400260207810
:100CF000C00650D56069012822D1AF48006807437B
:100D0000AD480760AC48006801210143AA48016072
:100D1000FFF73AFE0500A84800683040002806D1D9
:100D2000FFF732FE401B0328F5D303208DE0A248D5
:100D30000168F8229143A269D2000A4302602AE0C6
:100D40000421C943606988420BD19B480268114065
:100D500001600168F8229143A269D2000A4302604F
:100D600019E0954800680743934807609248006877
:100D70000121884390490860FFF706FE05008E4870
:100D800000683040002806D0FFF7FEFD401B032816
:100D9000F5D3032059E0206A002855D08748006821
:100DA0000C21014008294DD0206A022838D1844FF7
:100DB0003868A54901403960FFF7E6FD00908026BC
:100DC000B60438683040002807D0FFF7DDFD0099F1
:100DD000401A0328F3D3032037E07A4801680F2232
:100DE0009143E26A0A43026074480168934A0A40E8
:100DF000A16A1143626A0A4302603868802149048B
:100E000001433960FFF7C0FD050038683040002815
:100E10001AD1FFF7B9FD401B0328F6D3032014E0D5
:100E2000674E3068884901403160FFF7ADFD05002D
:100E30003068800108D5FFF7A7FD401B0328F7D3D2
:100E4000032002E0012000E00020FEBD241002404B
:100E50001C10024000700040201002408913000066
:100E6000FFFFFFEFF3B581B00400002000900125E3
:100E70007C4E30682840029988420CD230680121AB
:100E800088430299014331603068284002998842C2
:100E900001D001208EE0022021680140002906D007
:100EA00046490A68F0239A43A36813430B602168FC
:100EB0002940002952D06168012905D140480068C5
:100EC000800311D4012075E06168022905D13C48F6
:100ED0000068800108D401206CE0394909680840A5
:100EE000002801D1012065E0344F38680321884390
:100EF000616801433960FFF747FD00906068012891
:100F00000DD138680C210140042927D0FFF73CFDA2
:100F10000099401A54498842F3D303204AE060689C
:100F200002280DD138680C210140082916D0FFF79E
:100F30002BFD0099401A4C498842F3D3032039E035
:100F400038680C210140002908D0FFF71DFD0099E9
:100F5000401A45498842F3D303202BE002983168B8
:100F6000294088420CD2306801218843029901430C
:100F70003160306805400298854201D0012019E0B7
:100F80002078400706D50D480168384A0A40E168D4
:100F90001143016000F018F83549084A1268120937
:100FA0001207120F895CC84032490860002000F027
:100FB0007CFB0020FEBD0000341002400410024003
:100FC000001002402C100240F0B589B005A82A4953
:100FD000102200F07DFB01A82849102200F078FBC8
:100FE0000024200000942500260025490F680C21CC
:100FF0003940042902D0082902D01BE021481AE018
:101000000F2005A9BA0C0240895C0E0001A91E4AF6
:1010100012681040085C0090F80306D51948009942
:1010200000F038F87043050002E0184870430500EE
:10103000280000E0134809B0F0BD0000FFFFC2FF28
:101040000C48006870470000FFFFFFFE80B5FFF707
:10105000F7FF0F490A4A1268120A5207520F895CB9
:10106000C84002BD0020024089130000FFF8FFFFC6
:101070009C1D0008040000207C1D00088C1D000839
:101080000410024000127A002C10024000093D00BA
:10109000D41D00080022030A8B420BD203098B42A5
:1010A00019D243088B422ED2411A00D20146524136
:1010B00010467047FF2209023FD012068B4205D32B
:1010C000121209028B4201D31212090203098B4248
:1010D00019D300E0090AC3098B4201D3CB01C01A1E
:1010E000524183098B4201D38B01C01A52414309FB
:1010F0008B4201D34B01C01A524103098B4201D3E9
:101100000B01C01A5241C3088B4201D3CB00C01A55
:10111000524183088B4201D38B00C01A52414308CD
:101120008B4201D34B00C01A5241884200D3401A6F
:101130005241CFD201461046704708B500F0E2FA9E
:1011400008BD704738B505000C00FA239B0022004B
:10115000D2B292B229002D48FEF7EEFF31BD80B524
:1011600004212E48FFF7EEFF2020294908700320B4
:1011700028490870022228492448FFF753F801BD86
:1011800010B524480078002804D002280ED0032887
:1011900018D02EE000201E490978884205DA1E4941
:1011A000095C1F4A1154401CF5E722E00020184951
:1011B0000978884205DA1849095C1A4A1154401C1A
:1011C000F5E716E00020202813DA1749124A125CCE
:1011D0000A5480225200CB798C7954431B19134C4A
:1011E00023804B7A097A51435918114A1180401CC7
:1011F000E9E710BD10B5040020680E49884204D10B
:10120000FFF7BEFF01200C49087010BD0C00002044
:101210000A000020D60000207C00002000000020F2
:1012200008000020C4000020A4000020D0000020FE
:10123000D200002000380140D4000020F8B500F0B2
:1012400063FA00F023F800F06FFAFFF74FFB00F0AD
:101250000EFBFFF784FF304F304E314D2A7892B2AB
:1012600031003800FEF7DEFF00F01EFB2D4C207829
:101270000028FBD02A7892B231003800FEF7D2FF66
:1012800000200100284A11702070EFE770B594B07B
:101290000224089401260B9610200C90109400252F
:1012A0001195A02080031290139508A8FFF7A0FBCA
:1012B000002803D099211D4800F03AF8072000903B
:1012C00001940295039501216846FFF7CBFD0028A4
:1012D00003D0A621154800F02BF80496069504A823
:1012E00000F0FCFA002803D0AD21104800F020F8EF
:1012F000FFF7A6FEFA218900FFF7CCFE00F0AFF958
:10130000042000F0B2F9002200210020C04300F0C8
:1013100095F914B070BD00000C0000207C00002086
:101320000A000020D4000020D50000209C1B0008EB
:1013300000B5FEE7FCB50200002300200190002765
:101340000868D840002800D1F1E001240868250091
:101350009D40054001950198002800D1E5E04868CE
:10136000022802D0486812281FD1D80804256843F3
:101370001018066A072000960F25AC461E0006408E
:1013800004256E436546B540009EAE43B4460D69E4
:101390001E003040042670438540664635432F00CA
:1013A000D808042568431018076216680325B44658
:1013B0001E00022046432800B04066468643009641
:1013C0004E682E40B446180002267043664686409A
:1013D0000098064316604868012808D0486802282B
:1013E00005D04868112802D04868122820D1976893
:1013F000BC461F00022047432800B8406746874389
:101400000097C86884461F00022047436046B840E2
:10141000009F3843009000989060576820009840E3
:1014200087434868000920409840384306005660CA
:10143000D768BC461F00022047432800B8406746D3
:10144000874300978F68BC46180002277843674699
:10145000874000980743D7604868C00065D53B487F
:1014600006682643066000682040009000983848CF
:1014700084469E08042046436046805900900F260B
:10148000B4461E002800304004267043664686405D
:101490000098B0439026F605B24201D100240DE039
:1014A0002C4EB2420AD02C4CA24201D1022405E0BB
:1014B0002A4CA24201D12C0000E005241E00354038
:1014C00004267543AC40044321489D080426754317
:1014D0004451234D2868019EB0434E68F60302D55F
:1014E00004000198204328601E4D2C68019EB443DF
:1014F0004E68B60302D52000019C04432C601A4DAF
:101500002868019EB0434E68F60202D50400019897
:1015100020432860154C2768019DAF434D68AD02FC
:1015200002D53800019F074327605B1C08E7F3BD25
:1015300000B51300DBB2002B03D00B009BB283611C
:1015400002E00B009BB2836200BD00001810024055
:10155000080001400004004800080048000C004852
:101560000004014004040140080401400C0401404F
:101570000121C206D20E9140434A11607047F0B576
:10158000020052B2002A23D503220F243F4B05004C
:101590006DB22540083DAD0804267543060076B2BD
:1015A0003440083CA408042674431E59FF27BC4657
:1015B0001400044008277C436746A740BE438C01C3
:1015C000E4B2024008277A43944034435C511BE064
:1015D0002F4A0323040064B2A40804256C43145961
:1015E000FF251E00064008277E43B540AC438D0111
:1015F000EDB20340082673439D40254303005BB2D0
:101600009B0804246343D550F0BD10B50400601E50
:1016100080214904884201D301200EE0601E1D494B
:10162000086003210020C043FFF7A9FF00201A49EA
:101630000860072019490860002010BD70B505003A
:101640000C0016002100280040B2FFF798FF70BD83
:1016500010B50400200040B2FFF78AFF10BD10B59E
:1016600004002000FFF7D1FF10BD00B5042805D10C
:101670000A490A68042313430B6004E007490A6817
:1016800004239A430A6000BD00E100E01CED00E085
:1016900000E400E014E000E018E000E010E000E00A
:1016A00080B500F001F801BD704710B50400FFF7E8
:1016B000C7FCFA218900FFF7EDFCFFF7D0FF0022FD
:1016C00021000020C043FFF7B9FF002010BDFEE756
:1016D00070B4103A03D378C9103A78C0FBD25307DC
:1016E00001D318C918C001D508C908C0D20704D34E
:1016F0000B880380891C801C002A01D50B7803709D
:1017000070BC70477047FEE780B50648016810223C
:101710000A4302600020FFF7C8FF00F077F90020BD
:1017200002BD000000200240F8B586B08020800293
:1017300016490A6802430A600A681040009000983F
:10174000802000030A6802430A600968084000908C
:101750000098C026B6000E4F002231003800FFF777
:10176000E7FE012401940B4802900025039501A98E
:101770009020C005FFF7DEFD0196029403950495C5
:1017800001A93800FFF7D6FD07B0F0BD14100240E4
:1017900000080048000012100121C206D20E91403C
:1017A000474A11607047F0B5020052B2002A23D5B3
:1017B00003220F24434B05006DB22540083DAD08C0
:1017C00004267543060076B23440083CA40804267B
:1017D00074431E59FF27BC461400044008277C436D
:1017E0006746A740BE438C01E4B2024008277A4313
:1017F000944034435C511BE0334A0323040064B239
:10180000A40804256C431459FF251E000640082730
:101810007E43B540AC438D01EDB2034008267343CF
:101820009D40254303005BB29B0804246343D550CD
:10183000F0BD81B025490A6802430A600968014089
:101840000091009901B07047016801220A430260CB
:101850007047016880220A43026070470121C94332
:1018600001617047C16801220A43C260704718B520
:1018700085B01020FFF7DDFF00211120FFF793FF57
:101880001120FFF789FF1248694608800020019067
:1018900010480290104C6946200000F0EEF820003D
:1018A000FFF7D7FF06B010BD10B50B4C2000FFF7B7
:1018B000D5FF2000FFF7D6FF2000FFF7C5FF10BDC2
:1018C00000E100E01CED00E000E400E01C1002403C
:1018D0007FBB0000CF07000000100040F8B584B0C7
:1018E00007000020029001908024640239682140A2
:1018F000002964D069460870802040053B4D296866
:101900000140002909D1296801432960296808405C
:1019100003900398012069460870354E3068C00571
:1019200012D430688021490001433160FFF72CF860
:1019300002903068C00507D4FFF726F80299401AD4
:101940006528F6D303204FE0C0208000294E31687F
:10195000014001910199002923D001997A68104032
:1019600081421ED03068244901400191306804430F
:10197000346030682149014031600198306001983D
:10198000C0070ED5FFF700F802903068800708D432
:10199000FEF7FAFF0299401A19498842F5D303204D
:1019A00022E0306814490140786808433060684696
:1019B0000078012803D1286812490140296038784D
:1019C000C00706D51048016803229143BA680A434C
:1019D00002603878800606D50B48016810229143D2
:1019E000FA680A430260002005B0F0BD1C100240F6
:1019F0000070004020100240FFFCFFFFFFFFFEFFD1
:101A000089130000FFFFFFEF3010024080B5012076
:101A100012490A6802430A60096808400090009869
:101A2000802040050E490A6802430A6009680840A0
:101A300000900098002200210420C043FFF7FEFD23
:101A4000002200210120C043FFF7F8FD0022002101
:101A50000020C043FFF7F2FD01BD00BF1810024097
:101A60001C10024081627047C16270470163704779
:101A7000416901220A4342617047F8B504000E0033
:101A8000002025681E4FBC4202D01E48844204D16B
:101A900070208543280075680543BC420ED0194864
:101AA00084420BD01848844208D01848844205D09C
:101AB0001748844202D01748844203D11648284070
:101AC000F56805432560B1682000FFF7CDFF318838
:101AD0002000FFF7C7FFBC4208D00C48844205D065
:101AE0000B48844202D00B48844203D1317C200051
:101AF000FFF7BCFF2000FFF7BBFF0120F2BD000095
:101B0000002C014000040040002000400040014043
:101B10000044014000480140FFFCFFFF14480168F9
:101B200001220A43026013490A68134B13400B60F9
:101B30000268124B134003600268114B13400360AC
:101B40000868104A02400A600F4801680F2291435A
:101B500001600E4801680E4A0A4002600D480168A3
:101B600001229143016000200B490860704700008A
:101B700000100240041002400CB8FF08FFFFF6FE00
:101B8000FFFFFBFFFFFFC0FF2C10024030100240A0
:101B9000ECFEFFFF3410024008100240493A5C504E
:101BA000524F4A454354535C504D322E355F6D655C
:101BB000746572735C53544D3332463033305F4832
:101BC0004F4E322E355C53544D3332463033305FF6
:101BD000484F4E322E355C5372635C6D61696E2ED8
:101BE00063000000493A5C50524F4A454354535CED
:101BF000504D322E355F6D65746572735C53544D74
:101C00003332463033305F484F4E322E355C5354BA
:101C10004D3332463033305F484F4E322E355C53B1
:101C200072635C75736172742E6300000121C94395
:101C30000161704780B500F017F8FFF731FD01BD75
:101C400080B50648FFF7F2FF01200549087001BD85
:101C500080B50448FEF744FB01BD000000100040C1
:101C6000D50000200C00002002480168491C0160DA
:101C7000704700BFCC00002070B40123002413E0A3
:101C80000168001D194202D04D466D1E49190C60B5
:101C9000091D121F042AFAD20D00960701D50C80E7
:101CA000AD1C1A4000D02C700268001D002AE7D13C
:101CB00070BC704730B401220168001D00290FD0AC
:101CC0000368C31844680830144202D04D466D1EA4
:101CD00064191D6825601B1D241D091FECD0F8E741
:101CE00030BC704710B5074979441831064C7C4424
:101CF000163404E0081D0A68891888470100A142CB
:101D0000F8D110BD08000000280000006DFFFFFFA3
:101D1000CC0000000C0000200000000099FFFFFF35
:101D20000C000000A40000000000002000000000E3
:101D300000F00DF8002801D0FFF7D4FF00BF00BF6E
:101D4000002000BF00BFFFF779FA00F002F8012081
:101D5000704780B500F002F801BDFEE7074638463F
:101D600000F002F8FBE7FEE780B500BF00BF024AC3
:101D700011001820ABBEFBE7260002000203040599
:101D8000060708090A0B0C0D0E0F101001020304C0
:101D900005060708090A0B0C0D0E0F1000000000C5
:101DA00000000000010203040607080901488047FB
:101DB000014800471D1B0008BD1D000800BF00BFF3
:101DC00000BF00BFFFF7B4FF6801405700127A0060
:101DD000020002000000000001020304FEE7FEE72B
:101DE000FEE7FEE7FEE7FEE7FEE7FEE7FEE7FEE7CB
:101DF000FEE7FEE7FEE7FEE7FEE7FEE7FEE7FEE7BB
:081E0000FEE7FEE7FEE7FEE746
:0400000508001DBD15
:00000001FF
